:020000020000FC
:0200000019C025
:02000E000BC025
:100026001F931CB11093600068941F9118950FEDF3
:100036000DBFE0E6F0E000270193F030E9F7E03E7F
:10004600D9F7EE27FF27EEE1FF27EA95F083E9F7D8
:100056000FE107BB03E00ABB79D015D07FD002E0E1
:100066001BB310271BBBE8947894A895F6F752D0DB
:1000760001E01BB310271BBB8AD001E01BB310277E
:100086001BBBE894F2CFC19AC29AC098C398B99A9A
:10009600BA9ABC98B89ABB9A30E04CEC13D031E8C7
:1000A6004BE810D030E446EA0DD030E440ED0AD0FB
:1000B60033E248EC07D030E242EC04D031E040ECC9
:1000C60001D008950F93C098C19800E1C098000030
:1000D600000047FDC29A47FFC29800000000C09A80
:1000E60000000000330F441F0A9581F7C098C19A9B
:1000F6000F9108950F9308E0B499FECFB49BFECFFD
:1001060057FD02C0C39801C0C39A550F0A95A1F7BF
:100116000F91089560E039E340ECD4DF60E05AEADD
:10012600E9DF5AEAE7DF5AEAE5DF5DE2E3DF54EDAD
:10013600E1DF50916000650FDDDF6F70562FDADF6B
:100146005AEAD8DF31E040ECBDDF0895F8941F93FA
:10015600A8951FE011BD1F917894089509E109B98A
:1001660000E002B900E00BB908ED0AB906E003B9F0
:1001760008955D9BFECF0CB908955F9BFECF0CB131
:1001860008950F9308EC0A95F1F70F9108950F93D0
:100196001F932F9300E818E321E001501040204000
:1001A600E0F72F911F910F9108950F931F932F93AF
:1001B60000E015E32CE001501040204070F72F912D
:0601C6001F910F91089546
:00000001FF
